:100000000C942A000C9434000C9434000C943400AA
:100010000C9434000C9434000C9434000C94340090
:100020000C9434000C9434000C9434000C94340080
:100030000C9434000C9434000C9434000C94340070
:100040000C9434000C9434000C9434000C94340060
:100050000C94340011241FBECFE5D8E0DEBFCDBF25
:100060000E9436000C94C6000C940000DF93CF93DE
:10007000CDB7DEB7A7E3B0E0E7E3F0E080818E7FA5
:100080008C93A7E3B0E0E7E3F0E080818D7F8C9371
:10009000A7E3B0E0E7E3F0E080818B7F8C93A8E3F7
:1000A000B0E0E8E3F0E0808181608C93A8E3B0E009
:1000B000E8E3F0E0808182608C93A8E3B0E0E8E3BD
:1000C000F0E0808184608C93AAE3B0E0EAE3F0E0A2
:1000D000808181608C93AAE3B0E0EAE3F0E0808164
:1000E00082608C93ABE3B0E0EBE3F0E080818E7F45
:1000F0008C93ABE3B0E0EBE3F0E080818D7F8C93F9
:10010000E6E3F0E08081882F90E081709070982F76
:1001100081E08927882389F4E6E3F0E08081882F55
:1001200090E084709070009741F0ABE3B0E0EBE3B7
:10013000F0E080818E7F8C9307C0ABE3B0E0EBE30F
:10014000F0E0808181608C93E6E3F0E08081882F8D
:1001500090E082709070009789F0E6E3F0E0808193
:10016000882F90E084709070009741F0ABE3B0E08E
:10017000EBE3F0E080818D7F8C93C2CFABE3B0E006
:10018000EBE3F0E0808182608C93BACFF894FFCFEC
:00000001FF
